:0700A7001200877F607EEA72
:0B00AE00EF1FAC0670011E4C70F62224
:100087007BFA7A00C2A57F147E001200AED2A57F4C
:0F009700147E001200AEEB1B70011AEB4A70E5ED
:0100A6002237
:1000030075080075090F750A00750B19750C0075D5
:100013000D2390000A1200A71200AAE58215827030
:10002300021583E582458370ECD3E5099400E50866
:100033009400400D1200A7E509150970EC1508801E
:10004300E8D3E50B9400E50A940040141200877F7F
:10005300A87E611200AEE50B150B70E5150A80E171
:10006300D3E50D9400E50C940040141200877F1033
:100073007E271200AEE50D150D70E5150C80E1121B
:04008300008780FB77
:030000000200B942
:0C00B900787FE4F6D8FD75810D0200038D
:00000001FF
